:100000000C947B010C94AC010C94AC010C94AC01ED
:100010000C94AC010C94AC010C94AC010C94AC01AC
:100020000C94AC010C94AC010C94AC010C94AC019C
:100030000C94AC010C94AC010C94AC010C94AC018C
:100040000C94AC010C94AC010C94AC010C94AC017C
:100050000C94AC010C94AC010C94AC010C94B00465
:100060000C94AC010C9424050C94FA040C94AC018F
:100070000C94AC010C94AC010C94AC010C94AC014C
:100080000C94AC010C94AC010C94AC010C94AC013C
:100090000C94AC010C94AC010C94AC010C94AC012C
:1000A0000C94AC010C94AC010C94AC010C94AC011C
:1000B0000C94AC010C94AC010C94AC010C94AC010C
:1000C0000C94AC010C94AC010C94AC010C94AC01FC
:1000D0000C94AC010C94AC010C94AC010C94AC01EC
:1000E0000C94AC01C901CC01BB01BF01C5010302E5
:1000F000D001D401DA01DE01E201E801EC01F001F6
:100100000302F601FA01FE0198029D02A202AC026E
:10011000B6022F03C002C802D002DA02E402EE02E5
:10012000FD0207032F0311031B0325030C94AC02EC
:100130000C94EC010C94DA010C94EE020C949A03EA
:100140000C949D020C941B030C94C9010C94E402C2
:100150000C94FA010C9425030C94BC030C94FD023E
:100160000C94D0010C94E8010C948B030C940302C2
:100170000C94CC010C94C0020C94B6020C94E201D5
:100180000C94C8020C94F0010C945D030C94DA02F8
:100190000C94AE030C9411030C9407030C94A2026C
:1001A0000C94BB010C94D4010C942F030C94FE010D
:1001B0000C94BF010C94F4030C9441040C94D002F1
:1001C0000C94DE010C94F6010C94FB060C94C50112
:1001D0000C949802000020002300260029002C0027
:1001E0002F00320000010000030106010901000098
:1001F0002100240027002A002D00300033000101D7
:100200000000040107010A01000022002500280067
:100210002B002E003100340002010000050108010E
:100220000B0105050505070508080808020202027A
:100230000A0A080804040404010101010101010182
:100240000303030303030303040707070C0C0C0C4D
:100250000C0C0C0C02020202060606060606060636
:100260000B0B0B0B0B0B0B0B0102102020080810C3
:100270002040102040800201020108040201010216
:1002800004081020408080402010080402018004EF
:10029000020180402010080402010804020101024A
:1002A0000408102040800102040810204080000053
:1002B0000A0B02090C0D0E080703040100000000E0
:1002C000000000000000000000000000000000002E
:1002D00000000000000000000000121110000000EB
:1002E000000000000000000000000000000000000E
:1002F00000000000FB0611241FBECFEFD1E2DEBFDD
:10030000CDBF00E00CBF12E0A0E0B2E0E2EBFEE007
:1003100000E00BBF02C007900D92A831B107D9F7DA
:1003200022E0A8E1B2E001C01D92AE3BB207E1F7C6
:1003300011E0CBE7D1E000E006C021970109802F52
:10034000FE010E944A07CA37D10780E00807A9F7D3
:100350000E945A050C9457070C94000090E0FC0191
:100360003197E231F10508F04EC08827EE58FF4F73
:100370008F4F0C944A07809180008F7703C0809143
:1003800080008F7D80938000089580918000877F1A
:10039000F9CF84B58F7702C084B58F7D84BD089571
:1003A0008091B0008F7703C08091B0008F7D8093E3
:1003B000B0000895809190008F7707C080919000E1
:1003C0008F7D03C080919000877F80939000089577
:1003D0008091A0008F7707C08091A0008F7D03C01F
:1003E0008091A000877F8093A000089580912001D4
:1003F0008F7707C0809120018F7D03C080912001FD
:10040000877F8093200108951F93CF93DF93282F38
:1004100030E0F901E255FD4F8491F901E859FD4FB3
:10042000D491F901EE5DFD4FC491CC23C1F0162F9C
:1004300081110E94AE01EC2FF0E0EE0FFF1FE85F8C
:10044000FD4FA591B4919FB7F894111104C08C9100
:10045000D095D82302C0EC91DE2BDC939FBFDF91B7
:10046000CF911F910895CF93DF9390E0FC01E8595D
:10047000FD4F2491FC01EE5DFD4F8491882361F1D5
:1004800090E0880F991FFC01E251FE4FC591D49175
:10049000FC01E85FFD4FA591B491611109C09FB7C0
:1004A000F8948881209582238883EC912E230BC0B9
:1004B000623061F49FB7F8948881322F309583239E
:1004C0008883EC912E2B2C939FBF06C08FB7F89496
:1004D000E8812E2B28838FBFDF91CF9108951F9342
:1004E000CF93DF93182FEB0161E00E943302209736
:1004F00011F460E004C0CF3FD10539F461E0812FF1
:10050000DF91CF911F910C940402E12FF0E0E255AE
:10051000FD4FE4918E2F90E0FC013197E231F1051F
:1005200008F09DC08827EC57FF4F8F4F0C944A0767
:1005300084B5806884BDC7BD97C084B5806284BD22
:10054000C8BD92C080918000806880938000D09365
:100550008900C093880088C0809180008062809369
:100560008000D0938B00C0938A007EC08091800071
:10057000886080938000D0938D00C0938C0074C0FD
:100580008091B00080688093B000C093B3006CC0CD
:100590008091B00080628093B000C093B40064C0CA
:1005A00080919000806880939000D0939900C093D0
:1005B00098005AC080919000806280939000D09300
:1005C0009B00C0939A0050C08091900088608093F7
:1005D0009000D0939D00C0939C0046C08091A000E5
:1005E00080688093A0008091A0008F7B8093A00002
:1005F000D093A900C093A80037C08091A00080626A
:100600008093A000D093AB00C093AA002DC080912E
:10061000A00088608093A000D093AD00C093AC0090
:1006200023C080912001806880932001D09329010C
:10063000C093280119C0809120018062809320011D
:10064000D0932B01C0932A010FC0809120018860B4
:1006500080932001D0932D01C0932C0105C0C03898
:10066000D1050CF04BCF45CFDF91CF911F9108956D
:100670003FB7F89480911D0290911E02A0911F0235
:10068000B091200226B5A89B05C02F3F19F0019616
:10069000A11DB11D3FBFBA2FA92F982F8827820F08
:1006A000911DA11DB11DBC01CD0142E0660F771F58
:1006B000881F991F4A95D1F70895CF92DF92EF9244
:1006C000FF920F931F93CF93DF936C017A018B01FD
:1006D000C0E0D0E0CE15DF0581F0D8016D918D012D
:1006E000D601ED91FC910190F081E02DC6011995A4
:1006F000892B11F02196EECF7E01C701DF91CF91BA
:100700001F910F91FF90EF90DF90CF900895089583
:1007100080E090E00895FC01538D448D252F30E05A
:10072000842F90E0821B930B541710F0CF960895FE
:1007300001970895FC01918D828D981761F0828D4B
:10074000DF01A80FB11D5D968C91928D9F5F9F7305
:10075000928F90E008958FEF9FEF0895FC01918DA7
:10076000828D981731F0828DE80FF11D858D90E014
:1007700008958FEF9FEF0895FC01918D228D892FB1
:1007800090E0805C9F4F821B91098F739927089599
:1007900081E292E00E94BC0321E0892B09F420E071
:1007A000822F0895FC01848DDF01A80FB11DA35A8B
:1007B000BF4F2C91848D90E001968F739927848F81
:1007C000A689B7892C93A089B1898C9183708064A4
:1007D0008C93938D848D981306C00288F389E02D45
:1007E00080818F7D80830895EF92FF920F931F93F6
:1007F000CF93DF93EC0181E0888F9B8D8C8D9813D4
:1008000005C0E889F989808185FD26C0F62E0B8D0B
:1008100010E00F5F1F4F0F731127E02E8C8DE81231
:100820000CC00FB607FCFACFE889F989808185FFF3
:10083000F5CFCE010E94D203F1CF8B8DFE01E80FE0
:10084000F11DE35AFF4FF0829FB7F8940B8FEA89AE
:10085000FB89808180620AC09FB7F894EE89FF8986
:100860006083E889F98980818370806480839FBF79
:1008700081E090E0DF91CF911F910F91FF90EF9079
:100880000895CF93DF93EC01888D8823C9F0EA891E
:10089000FB89808185FD05C0A889B9898C9186FD79
:1008A0000FC00FB607FCF5CF808185FFF2CFA88976
:1008B000B9898C9185FFEDCFCE010E94D203E7CF9D
:1008C000DF91CF91089580E090E0892B21F00E9484
:1008D000C803811125C080E090E0892B41F080E0C1
:1008E00090E0892B21F00E94000081111CC080E063
:1008F00090E0892B41F080E090E0892B21F00E946C
:100900000000811113C080E090E0892BA1F080E00D
:1009100090E0892B81F00E94000081110AC00895A7
:100920000E940000D8CF0E940000E1CF0E9400008A
:10093000EACF0C9400000895009769F0FC01019043
:100940000020E9F73197AF01481B590BBC0181E248
:1009500092E00C945D0380E090E008950E945207BD
:100960001F920F920FB60F9211242F933F938F93E4
:100970009F93AF93BF938091190290911A02A09117
:100980001B02B0911C023091180223E0230F2D3777
:1009900020F40196A11DB11D05C026E8230F029683
:1009A000A11DB11D209318028093190290931A0281
:1009B000A0931B02B0931C0280911D0290911E0215
:1009C000A0911F02B09120020196A11DB11D80933C
:1009D0001D0290931E02A0931F02B0932002BF91AC
:1009E000AF919F918F913F912F910F900FBE0F90DC
:1009F0001F9018951F920F920FB60F9211240BB6ED
:100A00000F922F933F934F935F936F937F938F93A7
:100A10009F93AF93BF93EF93FF9381E292E00E9485
:100A2000D203FF91EF91BF91AF919F918F917F91F1
:100A30006F915F914F913F912F910F900BBE0F904F
:100A40000FBE0F901F9018951F920F920FB60F9226
:100A500011240BB60F922F938F939F93EF93FF93D5
:100A6000E0913102F09132028081E0913702F09101
:100A7000380282FD12C0908180913A028F5F8F739D
:100A800020913B02821751F0E0913A02F0E0EF5DD5
:100A9000FD4F958F80933A0201C08081FF91EF91C5
:100AA0009F918F912F910F900BBE0F900FBE0F90C3
:100AB0001F901895CF93DF93CDB7DEB7A1970FB6F0
:100AC000F894DEBF0FBECDBF789484B5826084BD3C
:100AD00084B5816084BD85B5826085BD85B5816042
:100AE00085BD80916E00816080936E0010928100C0
:100AF000809181008260809381008091810081607B
:100B0000809381008091800081608093800080913B
:100B1000B10084608093B1008091B00081608093C7
:100B2000B00080919100826080939100809191004B
:100B3000816080939100809190008160809390000B
:100B40008091A10082608093A1008091A1008160CA
:100B50008093A1008091A00081608093A00080918B
:100B60002101826080932101809121018160809325
:100B700021018091200181608093200180917A0081
:100B8000846080937A0080917A00826080937A00FA
:100B900080917A00816080937A0080917A008068E9
:100BA00080937A001092C100E0913102F0913202FC
:100BB00082E08083E0912D02F0912E021082E0917C
:100BC0002F02F09130028FEC808310923902E09175
:100BD0003502F091360286E08083E0913302F09195
:100BE0003402808180618083E0913302F09134028D
:100BF000808188608083E0913302F09134028081AB
:100C000080688083E0913302F091340280818F7D8F
:100C1000808361E082E00E94330261E083E00E9411
:100C2000330261E084E00E94330261E085E00E94CB
:100C3000330262E086E00E94330260E083E00E94BB
:100C4000040260E085E00E94040260E070E082E05F
:100C50000E946F0260E070E084E00E946F0261E039
:100C600087E00E94330261E087E00E94040228E2EC
:100C7000222E22E0322E3AE0432E512C612C712C90
:100C8000E4EBF2E08491EEE6F2E01491F1010491DC
:100C9000002379F081110E94AE01E02FF0E0EE0F09
:100CA000FF1FEC52FE4FA591B4918C91182309F0CF
:100CB00097C06FEF73E082E00E946F026FEF73E006
:100CC00084E00E946F0280910002909101020297DD
:100CD00074F48FEF93E0909301028093000261E03F
:100CE00083E00E94040261E085E00E94040200911A
:100CF00000021091010201501109109301020093AA
:100D000000020E9438036B017C0182E0882E912C46
:100D1000A12CB12C0E943803DC01CB018C199D0958
:100D2000AE09BF09883E9340A105B10598F3F1E0F3
:100D30008F1A9108A108B10828EEC20E23E0D21E36
:100D4000E11CF11C81149104A104B10419F768019C
:100D5000110FEE08FF08F7FE20C06DE281E292E07D
:100D60000E94F40322273327A9012C193D094E09BB
:100D70005F0919A2CE0181967C01CA01B901A301C4
:100D800092010E942807605DF70162937F0121159F
:100D900031054105510589F715C0A701960119A232
:100DA000CE0181967C01CA01B901A30192010E9482
:100DB0002807605DF70162937F0121153105410528
:100DC000510589F7C7010E949C0442E050E064E1AC
:100DD00072E081E292E00E945D030E94630450CFC2
:100DE00060E070E082E00E946F0260E070E084E00A
:100DF0000E946F02F2CFE1E2F2E01382128288EEEB
:100E000093E0A0E0B0E084839583A683B78386E077
:100E100092E09183808385EC90E09587848784ECD1
:100E200090E09787868780EC90E0918B808B81ECB7
:100E300090E0938B828B82EC90E0958B848B86EC98
:100E400090E0978B868B118E128E138E148E0895E0
:100E5000A1E21A2EAA1BBB1BFD010DC0AA1FBB1FBE
:100E6000EE1FFF1FA217B307E407F50720F0A21B30
:100E7000B30BE40BF50B661F771F881F991F1A949D
:100E800069F760957095809590959B01AC01BD01C7
:100E9000CF010895EE0FFF1F881F8BBF0790F691BB
:100EA000E02D199481E090E0F8940C945707F894A1
:020EB000FFCF72
:100EB200FF0300000000F4035D038B034104BC0345
:080EC2009A03AE030D0A0000C3
:00000001FF
